{
  "contractName": "HarambeClubNFT",
  "abi": [
    {
      "inputs": [
        {
          "internalType": "string",
          "name": "_name",
          "type": "string"
        },
        {
          "internalType": "string",
          "name": "_symbol",
          "type": "string"
        },
        {
          "internalType": "string",
          "name": "_initBaseURI",
          "type": "string"
        },
        {
          "internalType": "string",
          "name": "_initNotRevealedUri",
          "type": "string"
        }
      ],
      "stateMutability": "nonpayable",
      "type": "constructor"
    },
    {
      "anonymous": false,
      "inputs": [
        {
          "indexed": true,
          "internalType": "address",
          "name": "owner",
          "type": "address"
        },
        {
          "indexed": true,
          "internalType": "address",
          "name": "approved",
          "type": "address"
        },
        {
          "indexed": true,
          "internalType": "uint256",
          "name": "tokenId",
          "type": "uint256"
        }
      ],
      "name": "Approval",
      "type": "event"
    },
    {
      "anonymous": false,
      "inputs": [
        {
          "indexed": true,
          "internalType": "address",
          "name": "owner",
          "type": "address"
        },
        {
          "indexed": true,
          "internalType": "address",
          "name": "operator",
          "type": "address"
        },
        {
          "indexed": false,
          "internalType": "bool",
          "name": "approved",
          "type": "bool"
        }
      ],
      "name": "ApprovalForAll",
      "type": "event"
    },
    {
      "anonymous": false,
      "inputs": [
        {
          "indexed": true,
          "internalType": "address",
          "name": "previousOwner",
          "type": "address"
        },
        {
          "indexed": true,
          "internalType": "address",
          "name": "newOwner",
          "type": "address"
        }
      ],
      "name": "OwnershipTransferred",
      "type": "event"
    },
    {
      "anonymous": false,
      "inputs": [
        {
          "indexed": true,
          "internalType": "address",
          "name": "from",
          "type": "address"
        },
        {
          "indexed": true,
          "internalType": "address",
          "name": "to",
          "type": "address"
        },
        {
          "indexed": true,
          "internalType": "uint256",
          "name": "tokenId",
          "type": "uint256"
        }
      ],
      "name": "Transfer",
      "type": "event"
    },
    {
      "inputs": [
        {
          "internalType": "address",
          "name": "to",
          "type": "address"
        },
        {
          "internalType": "uint256",
          "name": "tokenId",
          "type": "uint256"
        }
      ],
      "name": "approve",
      "outputs": [],
      "stateMutability": "nonpayable",
      "type": "function"
    },
    {
      "inputs": [
        {
          "internalType": "address",
          "name": "owner",
          "type": "address"
        }
      ],
      "name": "balanceOf",
      "outputs": [
        {
          "internalType": "uint256",
          "name": "",
          "type": "uint256"
        }
      ],
      "stateMutability": "view",
      "type": "function",
      "constant": true
    },
    {
      "inputs": [],
      "name": "baseExtension",
      "outputs": [
        {
          "internalType": "string",
          "name": "",
          "type": "string"
        }
      ],
      "stateMutability": "view",
      "type": "function",
      "constant": true
    },
    {
      "inputs": [],
      "name": "cost",
      "outputs": [
        {
          "internalType": "uint256",
          "name": "",
          "type": "uint256"
        }
      ],
      "stateMutability": "view",
      "type": "function",
      "constant": true
    },
    {
      "inputs": [
        {
          "internalType": "uint256",
          "name": "tokenId",
          "type": "uint256"
        }
      ],
      "name": "getApproved",
      "outputs": [
        {
          "internalType": "address",
          "name": "",
          "type": "address"
        }
      ],
      "stateMutability": "view",
      "type": "function",
      "constant": true
    },
    {
      "inputs": [
        {
          "internalType": "address",
          "name": "owner",
          "type": "address"
        },
        {
          "internalType": "address",
          "name": "operator",
          "type": "address"
        }
      ],
      "name": "isApprovedForAll",
      "outputs": [
        {
          "internalType": "bool",
          "name": "",
          "type": "bool"
        }
      ],
      "stateMutability": "view",
      "type": "function",
      "constant": true
    },
    {
      "inputs": [],
      "name": "maxMintAmount",
      "outputs": [
        {
          "internalType": "uint256",
          "name": "",
          "type": "uint256"
        }
      ],
      "stateMutability": "view",
      "type": "function",
      "constant": true
    },
    {
      "inputs": [],
      "name": "maxSupply",
      "outputs": [
        {
          "internalType": "uint256",
          "name": "",
          "type": "uint256"
        }
      ],
      "stateMutability": "view",
      "type": "function",
      "constant": true
    },
    {
      "inputs": [],
      "name": "name",
      "outputs": [
        {
          "internalType": "string",
          "name": "",
          "type": "string"
        }
      ],
      "stateMutability": "view",
      "type": "function",
      "constant": true
    },
    {
      "inputs": [],
      "name": "notRevealedUri",
      "outputs": [
        {
          "internalType": "string",
          "name": "",
          "type": "string"
        }
      ],
      "stateMutability": "view",
      "type": "function",
      "constant": true
    },
    {
      "inputs": [],
      "name": "owner",
      "outputs": [
        {
          "internalType": "address",
          "name": "",
          "type": "address"
        }
      ],
      "stateMutability": "view",
      "type": "function",
      "constant": true
    },
    {
      "inputs": [
        {
          "internalType": "uint256",
          "name": "tokenId",
          "type": "uint256"
        }
      ],
      "name": "ownerOf",
      "outputs": [
        {
          "internalType": "address",
          "name": "",
          "type": "address"
        }
      ],
      "stateMutability": "view",
      "type": "function",
      "constant": true
    },
    {
      "inputs": [],
      "name": "paused",
      "outputs": [
        {
          "internalType": "bool",
          "name": "",
          "type": "bool"
        }
      ],
      "stateMutability": "view",
      "type": "function",
      "constant": true
    },
    {
      "inputs": [],
      "name": "renounceOwnership",
      "outputs": [],
      "stateMutability": "nonpayable",
      "type": "function"
    },
    {
      "inputs": [],
      "name": "revealed",
      "outputs": [
        {
          "internalType": "bool",
          "name": "",
          "type": "bool"
        }
      ],
      "stateMutability": "view",
      "type": "function",
      "constant": true
    },
    {
      "inputs": [
        {
          "internalType": "address",
          "name": "from",
          "type": "address"
        },
        {
          "internalType": "address",
          "name": "to",
          "type": "address"
        },
        {
          "internalType": "uint256",
          "name": "tokenId",
          "type": "uint256"
        }
      ],
      "name": "safeTransferFrom",
      "outputs": [],
      "stateMutability": "nonpayable",
      "type": "function"
    },
    {
      "inputs": [
        {
          "internalType": "address",
          "name": "from",
          "type": "address"
        },
        {
          "internalType": "address",
          "name": "to",
          "type": "address"
        },
        {
          "internalType": "uint256",
          "name": "tokenId",
          "type": "uint256"
        },
        {
          "internalType": "bytes",
          "name": "_data",
          "type": "bytes"
        }
      ],
      "name": "safeTransferFrom",
      "outputs": [],
      "stateMutability": "nonpayable",
      "type": "function"
    },
    {
      "inputs": [
        {
          "internalType": "address",
          "name": "operator",
          "type": "address"
        },
        {
          "internalType": "bool",
          "name": "approved",
          "type": "bool"
        }
      ],
      "name": "setApprovalForAll",
      "outputs": [],
      "stateMutability": "nonpayable",
      "type": "function"
    },
    {
      "inputs": [
        {
          "internalType": "bytes4",
          "name": "interfaceId",
          "type": "bytes4"
        }
      ],
      "name": "supportsInterface",
      "outputs": [
        {
          "internalType": "bool",
          "name": "",
          "type": "bool"
        }
      ],
      "stateMutability": "view",
      "type": "function",
      "constant": true
    },
    {
      "inputs": [],
      "name": "symbol",
      "outputs": [
        {
          "internalType": "string",
          "name": "",
          "type": "string"
        }
      ],
      "stateMutability": "view",
      "type": "function",
      "constant": true
    },
    {
      "inputs": [
        {
          "internalType": "uint256",
          "name": "index",
          "type": "uint256"
        }
      ],
      "name": "tokenByIndex",
      "outputs": [
        {
          "internalType": "uint256",
          "name": "",
          "type": "uint256"
        }
      ],
      "stateMutability": "view",
      "type": "function",
      "constant": true
    },
    {
      "inputs": [
        {
          "internalType": "address",
          "name": "owner",
          "type": "address"
        },
        {
          "internalType": "uint256",
          "name": "index",
          "type": "uint256"
        }
      ],
      "name": "tokenOfOwnerByIndex",
      "outputs": [
        {
          "internalType": "uint256",
          "name": "",
          "type": "uint256"
        }
      ],
      "stateMutability": "view",
      "type": "function",
      "constant": true
    },
    {
      "inputs": [],
      "name": "totalSupply",
      "outputs": [
        {
          "internalType": "uint256",
          "name": "",
          "type": "uint256"
        }
      ],
      "stateMutability": "view",
      "type": "function",
      "constant": true
    },
    {
      "inputs": [
        {
          "internalType": "address",
          "name": "from",
          "type": "address"
        },
        {
          "internalType": "address",
          "name": "to",
          "type": "address"
        },
        {
          "internalType": "uint256",
          "name": "tokenId",
          "type": "uint256"
        }
      ],
      "name": "transferFrom",
      "outputs": [],
      "stateMutability": "nonpayable",
      "type": "function"
    },
    {
      "inputs": [
        {
          "internalType": "address",
          "name": "newOwner",
          "type": "address"
        }
      ],
      "name": "transferOwnership",
      "outputs": [],
      "stateMutability": "nonpayable",
      "type": "function"
    },
    {
      "inputs": [
        {
          "internalType": "uint256",
          "name": "_mintAmount",
          "type": "uint256"
        }
      ],
      "name": "mint",
      "outputs": [],
      "stateMutability": "payable",
      "type": "function",
      "payable": true
    },
    {
      "inputs": [
        {
          "internalType": "address",
          "name": "_owner",
          "type": "address"
        }
      ],
      "name": "walletOfOwner",
      "outputs": [
        {
          "internalType": "uint256[]",
          "name": "",
          "type": "uint256[]"
        }
      ],
      "stateMutability": "view",
      "type": "function",
      "constant": true
    },
    {
      "inputs": [
        {
          "internalType": "uint256",
          "name": "tokenId",
          "type": "uint256"
        }
      ],
      "name": "tokenURI",
      "outputs": [
        {
          "internalType": "string",
          "name": "",
          "type": "string"
        }
      ],
      "stateMutability": "view",
      "type": "function",
      "constant": true
    },
    {
      "inputs": [],
      "name": "reveal",
      "outputs": [],
      "stateMutability": "nonpayable",
      "type": "function"
    },
    {
      "inputs": [
        {
          "internalType": "uint256",
          "name": "_newCost",
          "type": "uint256"
        }
      ],
      "name": "setCost",
      "outputs": [],
      "stateMutability": "nonpayable",
      "type": "function"
    },
    {
      "inputs": [
        {
          "internalType": "uint256",
          "name": "_newmaxMintAmount",
          "type": "uint256"
        }
      ],
      "name": "setmaxMintAmount",
      "outputs": [],
      "stateMutability": "nonpayable",
      "type": "function"
    },
    {
      "inputs": [
        {
          "internalType": "string",
          "name": "_notRevealedURI",
          "type": "string"
        }
      ],
      "name": "setNotRevealedURI",
      "outputs": [],
      "stateMutability": "nonpayable",
      "type": "function"
    },
    {
      "inputs": [
        {
          "internalType": "string",
          "name": "_newBaseURI",
          "type": "string"
        }
      ],
      "name": "setBaseURI",
      "outputs": [],
      "stateMutability": "nonpayable",
      "type": "function"
    },
    {
      "inputs": [
        {
          "internalType": "string",
          "name": "_newBaseExtension",
          "type": "string"
        }
      ],
      "name": "setBaseExtension",
      "outputs": [],
      "stateMutability": "nonpayable",
      "type": "function"
    },
    {
      "inputs": [
        {
          "internalType": "bool",
          "name": "_state",
          "type": "bool"
        }
      ],
      "name": "pause",
      "outputs": [],
      "stateMutability": "nonpayable",
      "type": "function"
    },
    {
      "inputs": [],
      "name": "withdraw",
      "outputs": [],
      "stateMutability": "payable",
      "type": "function",
      "payable": true
    }
  ],
  "bytecode": "0x60806040526040518060400160405280600581526020017f2e6a736f6e000000000000000000000000000000000000000000000000000000815250600c908051906020019062000051929190620003a3565b506802b5e3af16b1880000600d55611388600e556014600f556001601060006101000a81548160ff0219169083151502179055506000601060016101000a81548160ff021916908315150217905550348015620000ad57600080fd5b5060405162004bb138038062004bb18339818101604052810190620000d39190620005f0565b83838160009080519060200190620000ed929190620003a3565b50806001908051906020019062000106929190620003a3565b505050620001296200011d6200015560201b60201c565b6200015d60201b60201c565b6200013a826200022360201b60201c565b6200014b81620002ce60201b60201c565b50505050620007c6565b600033905090565b6000600a60009054906101000a900473ffffffffffffffffffffffffffffffffffffffff16905081600a60006101000a81548173ffffffffffffffffffffffffffffffffffffffff021916908373ffffffffffffffffffffffffffffffffffffffff1602179055508173ffffffffffffffffffffffffffffffffffffffff168173ffffffffffffffffffffffffffffffffffffffff167f8be0079c531659141344cd1fd0a4f28419497f9722a3daafe3b4186f6b6457e060405160405180910390a35050565b620002336200015560201b60201c565b73ffffffffffffffffffffffffffffffffffffffff16620002596200037960201b60201c565b73ffffffffffffffffffffffffffffffffffffffff1614620002b2576040517f08c379a0000000000000000000000000000000000000000000000000000000008152600401620002a9906200073f565b60405180910390fd5b80600b9080519060200190620002ca929190620003a3565b5050565b620002de6200015560201b60201c565b73ffffffffffffffffffffffffffffffffffffffff16620003046200037960201b60201c565b73ffffffffffffffffffffffffffffffffffffffff16146200035d576040517f08c379a000000000000000000000000000000000000000000000000000000000815260040162000354906200073f565b60405180910390fd5b806011908051906020019062000375929190620003a3565b5050565b6000600a60009054906101000a900473ffffffffffffffffffffffffffffffffffffffff16905090565b828054620003b19062000790565b90600052602060002090601f016020900481019282620003d5576000855562000421565b82601f10620003f057805160ff191683800117855562000421565b8280016001018555821562000421579182015b828111156200042057825182559160200191906001019062000403565b5b50905062000430919062000434565b5090565b5b808211156200044f57600081600090555060010162000435565b5090565b6000604051905090565b600080fd5b600080fd5b600080fd5b600080fd5b6000601f19601f8301169050919050565b7f4e487b7100000000000000000000000000000000000000000000000000000000600052604160045260246000fd5b620004bc8262000471565b810181811067ffffffffffffffff82111715620004de57620004dd62000482565b5b80604052505050565b6000620004f362000453565b9050620005018282620004b1565b919050565b600067ffffffffffffffff82111562000524576200052362000482565b5b6200052f8262000471565b9050602081019050919050565b60005b838110156200055c5780820151818401526020810190506200053f565b838111156200056c576000848401525b50505050565b600062000589620005838462000506565b620004e7565b905082815260208101848484011115620005a857620005a76200046c565b5b620005b58482856200053c565b509392505050565b600082601f830112620005d557620005d462000467565b5b8151620005e784826020860162000572565b91505092915050565b600080600080608085870312156200060d576200060c6200045d565b5b600085015167ffffffffffffffff8111156200062e576200062d62000462565b5b6200063c87828801620005bd565b945050602085015167ffffffffffffffff81111562000660576200065f62000462565b5b6200066e87828801620005bd565b935050604085015167ffffffffffffffff81111562000692576200069162000462565b5b620006a087828801620005bd565b925050606085015167ffffffffffffffff811115620006c457620006c362000462565b5b620006d287828801620005bd565b91505092959194509250565b600082825260208201905092915050565b7f4f776e61626c653a2063616c6c6572206973206e6f7420746865206f776e6572600082015250565b600062000727602083620006de565b91506200073482620006ef565b602082019050919050565b600060208201905081810360008301526200075a8162000718565b9050919050565b7f4e487b7100000000000000000000000000000000000000000000000000000000600052602260045260246000fd5b60006002820490506001821680620007a957607f821691505b60208210811415620007c057620007bf62000761565b5b50919050565b6143db80620007d66000396000f3fe60806040526004361061020f5760003560e01c80635c975abb11610118578063a475b5dd116100a0578063d5abeb011161006f578063d5abeb011461076f578063da3ef23f1461079a578063e985e9c5146107c3578063f2c4ce1e14610800578063f2fde38b146108295761020f565b8063a475b5dd146106c7578063b88d4fde146106de578063c668286214610707578063c87b56dd146107325761020f565b80637f00c7a6116100e75780637f00c7a6146106035780638da5cb5b1461062c57806395d89b4114610657578063a0712d6814610682578063a22cb4651461069e5761020f565b80635c975abb146105475780636352211e1461057257806370a08231146105af578063715018a6146105ec5761020f565b806323b872dd1161019b578063438b63001161016a578063438b63001461045057806344a0d68a1461048d5780634f6ccce7146104b657806351830227146104f357806355f804b31461051e5761020f565b806323b872dd146103b75780632f745c59146103e05780633ccfd60b1461041d57806342842e0e146104275761020f565b8063081c8c44116101e2578063081c8c44146102e2578063095ea7b31461030d57806313faede61461033657806318160ddd14610361578063239c70ae1461038c5761020f565b806301ffc9a71461021457806302329a291461025157806306fdde031461027a578063081812fc146102a5575b600080fd5b34801561022057600080fd5b5061023b60048036038101906102369190612dd5565b610852565b6040516102489190612e1d565b60405180910390f35b34801561025d57600080fd5b5061027860048036038101906102739190612e64565b6108cc565b005b34801561028657600080fd5b5061028f610965565b60405161029c9190612f2a565b60405180910390f35b3480156102b157600080fd5b506102cc60048036038101906102c79190612f82565b6109f7565b6040516102d99190612ff0565b60405180910390f35b3480156102ee57600080fd5b506102f7610a7c565b6040516103049190612f2a565b60405180910390f35b34801561031957600080fd5b50610334600480360381019061032f9190613037565b610b0a565b005b34801561034257600080fd5b5061034b610c22565b6040516103589190613086565b60405180910390f35b34801561036d57600080fd5b50610376610c28565b6040516103839190613086565b60405180910390f35b34801561039857600080fd5b506103a1610c35565b6040516103ae9190613086565b60405180910390f35b3480156103c357600080fd5b506103de60048036038101906103d991906130a1565b610c3b565b005b3480156103ec57600080fd5b5061040760048036038101906104029190613037565b610c9b565b6040516104149190613086565b60405180910390f35b610425610d40565b005b34801561043357600080fd5b5061044e600480360381019061044991906130a1565b610e53565b005b34801561045c57600080fd5b50610477600480360381019061047291906130f4565b610e73565b60405161048491906131df565b60405180910390f35b34801561049957600080fd5b506104b460048036038101906104af9190612f82565b610f21565b005b3480156104c257600080fd5b506104dd60048036038101906104d89190612f82565b610fa7565b6040516104ea9190613086565b60405180910390f35b3480156104ff57600080fd5b50610508611018565b6040516105159190612e1d565b60405180910390f35b34801561052a57600080fd5b5061054560048036038101906105409190613336565b61102b565b005b34801561055357600080fd5b5061055c6110c1565b6040516105699190612e1d565b60405180910390f35b34801561057e57600080fd5b5061059960048036038101906105949190612f82565b6110d4565b6040516105a69190612ff0565b60405180910390f35b3480156105bb57600080fd5b506105d660048036038101906105d191906130f4565b611186565b6040516105e39190613086565b60405180910390f35b3480156105f857600080fd5b5061060161123e565b005b34801561060f57600080fd5b5061062a60048036038101906106259190612f82565b6112c6565b005b34801561063857600080fd5b5061064161134c565b60405161064e9190612ff0565b60405180910390f35b34801561066357600080fd5b5061066c611376565b6040516106799190612f2a565b60405180910390f35b61069c60048036038101906106979190612f82565b611408565b005b3480156106aa57600080fd5b506106c560048036038101906106c0919061337f565b6114da565b005b3480156106d357600080fd5b506106dc6114f0565b005b3480156106ea57600080fd5b5061070560048036038101906107009190613460565b611589565b005b34801561071357600080fd5b5061071c6115eb565b6040516107299190612f2a565b60405180910390f35b34801561073e57600080fd5b5061075960048036038101906107549190612f82565b611679565b6040516107669190612f2a565b60405180910390f35b34801561077b57600080fd5b506107846117d2565b6040516107919190613086565b60405180910390f35b3480156107a657600080fd5b506107c160048036038101906107bc9190613336565b6117d8565b005b3480156107cf57600080fd5b506107ea60048036038101906107e591906134e3565b61186e565b6040516107f79190612e1d565b60405180910390f35b34801561080c57600080fd5b5061082760048036038101906108229190613336565b611902565b005b34801561083557600080fd5b50610850600480360381019061084b91906130f4565b611998565b005b60007f780e9d63000000000000000000000000000000000000000000000000000000007bffffffffffffffffffffffffffffffffffffffffffffffffffffffff1916827bffffffffffffffffffffffffffffffffffffffffffffffffffffffff191614806108c557506108c482611a90565b5b9050919050565b6108d4611b72565b73ffffffffffffffffffffffffffffffffffffffff166108f261134c565b73ffffffffffffffffffffffffffffffffffffffff1614610948576040517f08c379a000000000000000000000000000000000000000000000000000000000815260040161093f9061356f565b60405180910390fd5b80601060006101000a81548160ff02191690831515021790555050565b606060008054610974906135be565b80601f01602080910402602001604051908101604052809291908181526020018280546109a0906135be565b80156109ed5780601f106109c2576101008083540402835291602001916109ed565b820191906000526020600020905b8154815290600101906020018083116109d057829003601f168201915b5050505050905090565b6000610a0282611b7a565b610a41576040517f08c379a0000000000000000000000000000000000000000000000000000000008152600401610a3890613662565b60405180910390fd5b6004600083815260200190815260200160002060009054906101000a900473ffffffffffffffffffffffffffffffffffffffff169050919050565b60118054610a89906135be565b80601f0160208091040260200160405190810160405280929190818152602001828054610ab5906135be565b8015610b025780601f10610ad757610100808354040283529160200191610b02565b820191906000526020600020905b815481529060010190602001808311610ae557829003601f168201915b505050505081565b6000610b15826110d4565b90508073ffffffffffffffffffffffffffffffffffffffff168373ffffffffffffffffffffffffffffffffffffffff161415610b86576040517f08c379a0000000000000000000000000000000000000000000000000000000008152600401610b7d906136f4565b60405180910390fd5b8073ffffffffffffffffffffffffffffffffffffffff16610ba5611b72565b73ffffffffffffffffffffffffffffffffffffffff161480610bd45750610bd381610bce611b72565b61186e565b5b610c13576040517f08c379a0000000000000000000000000000000000000000000000000000000008152600401610c0a90613786565b60405180910390fd5b610c1d8383611be6565b505050565b600d5481565b6000600880549050905090565b600f5481565b610c4c610c46611b72565b82611c9f565b610c8b576040517f08c379a0000000000000000000000000000000000000000000000000000000008152600401610c8290613818565b60405180910390fd5b610c96838383611d7d565b505050565b6000610ca683611186565b8210610ce7576040517f08c379a0000000000000000000000000000000000000000000000000000000008152600401610cde906138aa565b60405180910390fd5b600660008473ffffffffffffffffffffffffffffffffffffffff1673ffffffffffffffffffffffffffffffffffffffff168152602001908152602001600020600083815260200190815260200160002054905092915050565b610d48611b72565b73ffffffffffffffffffffffffffffffffffffffff16610d6661134c565b73ffffffffffffffffffffffffffffffffffffffff1614610dbc576040517f08c379a0000000000000000000000000000000000000000000000000000000008152600401610db39061356f565b60405180910390fd5b6000610dc661134c565b73ffffffffffffffffffffffffffffffffffffffff163073ffffffffffffffffffffffffffffffffffffffff1631604051610e00906138fb565b60006040518083038185875af1925050503d8060008114610e3d576040519150601f19603f3d011682016040523d82523d6000602084013e610e42565b606091505b5050905080610e5057600080fd5b50565b610e6e83838360405180602001604052806000815250611589565b505050565b60606000610e8083611186565b905060008167ffffffffffffffff811115610e9e57610e9d61320b565b5b604051908082528060200260200182016040528015610ecc5781602001602082028036833780820191505090505b50905060005b82811015610f1657610ee48582610c9b565b828281518110610ef757610ef6613910565b5b6020026020010181815250508080610f0e9061396e565b915050610ed2565b508092505050919050565b610f29611b72565b73ffffffffffffffffffffffffffffffffffffffff16610f4761134c565b73ffffffffffffffffffffffffffffffffffffffff1614610f9d576040517f08c379a0000000000000000000000000000000000000000000000000000000008152600401610f949061356f565b60405180910390fd5b80600d8190555050565b6000610fb1610c28565b8210610ff2576040517f08c379a0000000000000000000000000000000000000000000000000000000008152600401610fe990613a29565b60405180910390fd5b6008828154811061100657611005613910565b5b90600052602060002001549050919050565b601060019054906101000a900460ff1681565b611033611b72565b73ffffffffffffffffffffffffffffffffffffffff1661105161134c565b73ffffffffffffffffffffffffffffffffffffffff16146110a7576040517f08c379a000000000000000000000000000000000000000000000000000000000815260040161109e9061356f565b60405180910390fd5b80600b90805190602001906110bd929190612cc6565b5050565b601060009054906101000a900460ff1681565b6000806002600084815260200190815260200160002060009054906101000a900473ffffffffffffffffffffffffffffffffffffffff169050600073ffffffffffffffffffffffffffffffffffffffff168173ffffffffffffffffffffffffffffffffffffffff16141561117d576040517f08c379a000000000000000000000000000000000000000000000000000000000815260040161117490613abb565b60405180910390fd5b80915050919050565b60008073ffffffffffffffffffffffffffffffffffffffff168273ffffffffffffffffffffffffffffffffffffffff1614156111f7576040517f08c379a00000000000000000000000000000000000000000000000000000000081526004016111ee90613b4d565b60405180910390fd5b600360008373ffffffffffffffffffffffffffffffffffffffff1673ffffffffffffffffffffffffffffffffffffffff168152602001908152602001600020549050919050565b611246611b72565b73ffffffffffffffffffffffffffffffffffffffff1661126461134c565b73ffffffffffffffffffffffffffffffffffffffff16146112ba576040517f08c379a00000000000000000000000000000000000000000000000000000000081526004016112b19061356f565b60405180910390fd5b6112c46000611fd9565b565b6112ce611b72565b73ffffffffffffffffffffffffffffffffffffffff166112ec61134c565b73ffffffffffffffffffffffffffffffffffffffff1614611342576040517f08c379a00000000000000000000000000000000000000000000000000000000081526004016113399061356f565b60405180910390fd5b80600f8190555050565b6000600a60009054906101000a900473ffffffffffffffffffffffffffffffffffffffff16905090565b606060018054611385906135be565b80601f01602080910402602001604051908101604052809291908181526020018280546113b1906135be565b80156113fe5780601f106113d3576101008083540402835291602001916113fe565b820191906000526020600020905b8154815290600101906020018083116113e157829003601f168201915b5050505050905090565b6000611412610c28565b90506000821161142157600080fd5b600f5482111561143057600080fd5b600e54828261143f9190613b6d565b111561144a57600080fd5b61145261134c565b73ffffffffffffffffffffffffffffffffffffffff163373ffffffffffffffffffffffffffffffffffffffff161461149f5781600d546114929190613bc3565b34101561149e57600080fd5b5b6000600190505b8281116114d5576114c23382846114bd9190613b6d565b61209f565b80806114cd9061396e565b9150506114a6565b505050565b6114ec6114e5611b72565b83836120bd565b5050565b6114f8611b72565b73ffffffffffffffffffffffffffffffffffffffff1661151661134c565b73ffffffffffffffffffffffffffffffffffffffff161461156c576040517f08c379a00000000000000000000000000000000000000000000000000000000081526004016115639061356f565b60405180910390fd5b6001601060016101000a81548160ff021916908315150217905550565b61159a611594611b72565b83611c9f565b6115d9576040517f08c379a00000000000000000000000000000000000000000000000000000000081526004016115d090613818565b60405180910390fd5b6115e58484848461222a565b50505050565b600c80546115f8906135be565b80601f0160208091040260200160405190810160405280929190818152602001828054611624906135be565b80156116715780601f1061164657610100808354040283529160200191611671565b820191906000526020600020905b81548152906001019060200180831161165457829003601f168201915b505050505081565b606061168482611b7a565b6116c3576040517f08c379a00000000000000000000000000000000000000000000000000000000081526004016116ba90613c8f565b60405180910390fd5b60001515601060019054906101000a900460ff161515141561177157601180546116ec906135be565b80601f0160208091040260200160405190810160405280929190818152602001828054611718906135be565b80156117655780601f1061173a57610100808354040283529160200191611765565b820191906000526020600020905b81548152906001019060200180831161174857829003601f168201915b505050505090506117cd565b600061177b612286565b9050600081511161179b57604051806020016040528060008152506117c9565b806117a584612318565b600c6040516020016117b993929190613d7f565b6040516020818303038152906040525b9150505b919050565b600e5481565b6117e0611b72565b73ffffffffffffffffffffffffffffffffffffffff166117fe61134c565b73ffffffffffffffffffffffffffffffffffffffff1614611854576040517f08c379a000000000000000000000000000000000000000000000000000000000815260040161184b9061356f565b60405180910390fd5b80600c908051906020019061186a929190612cc6565b5050565b6000600560008473ffffffffffffffffffffffffffffffffffffffff1673ffffffffffffffffffffffffffffffffffffffff16815260200190815260200160002060008373ffffffffffffffffffffffffffffffffffffffff1673ffffffffffffffffffffffffffffffffffffffff16815260200190815260200160002060009054906101000a900460ff16905092915050565b61190a611b72565b73ffffffffffffffffffffffffffffffffffffffff1661192861134c565b73ffffffffffffffffffffffffffffffffffffffff161461197e576040517f08c379a00000000000000000000000000000000000000000000000000000000081526004016119759061356f565b60405180910390fd5b8060119080519060200190611994929190612cc6565b5050565b6119a0611b72565b73ffffffffffffffffffffffffffffffffffffffff166119be61134c565b73ffffffffffffffffffffffffffffffffffffffff1614611a14576040517f08c379a0000000000000000000000000000000000000000000000000000000008152600401611a0b9061356f565b60405180910390fd5b600073ffffffffffffffffffffffffffffffffffffffff168173ffffffffffffffffffffffffffffffffffffffff161415611a84576040517f08c379a0000000000000000000000000000000000000000000000000000000008152600401611a7b90613e22565b60405180910390fd5b611a8d81611fd9565b50565b60007f80ac58cd000000000000000000000000000000000000000000000000000000007bffffffffffffffffffffffffffffffffffffffffffffffffffffffff1916827bffffffffffffffffffffffffffffffffffffffffffffffffffffffff19161480611b5b57507f5b5e139f000000000000000000000000000000000000000000000000000000007bffffffffffffffffffffffffffffffffffffffffffffffffffffffff1916827bffffffffffffffffffffffffffffffffffffffffffffffffffffffff1916145b80611b6b5750611b6a82612479565b5b9050919050565b600033905090565b60008073ffffffffffffffffffffffffffffffffffffffff166002600084815260200190815260200160002060009054906101000a900473ffffffffffffffffffffffffffffffffffffffff1673ffffffffffffffffffffffffffffffffffffffff1614159050919050565b816004600083815260200190815260200160002060006101000a81548173ffffffffffffffffffffffffffffffffffffffff021916908373ffffffffffffffffffffffffffffffffffffffff160217905550808273ffffffffffffffffffffffffffffffffffffffff16611c59836110d4565b73ffffffffffffffffffffffffffffffffffffffff167f8c5be1e5ebec7d5bd14f71427d1e84f3dd0314c0f7b2291e5b200ac8c7c3b92560405160405180910390a45050565b6000611caa82611b7a565b611ce9576040517f08c379a0000000000000000000000000000000000000000000000000000000008152600401611ce090613eb4565b60405180910390fd5b6000611cf4836110d4565b90508073ffffffffffffffffffffffffffffffffffffffff168473ffffffffffffffffffffffffffffffffffffffff161480611d6357508373ffffffffffffffffffffffffffffffffffffffff16611d4b846109f7565b73ffffffffffffffffffffffffffffffffffffffff16145b80611d745750611d73818561186e565b5b91505092915050565b8273ffffffffffffffffffffffffffffffffffffffff16611d9d826110d4565b73ffffffffffffffffffffffffffffffffffffffff1614611df3576040517f08c379a0000000000000000000000000000000000000000000000000000000008152600401611dea90613f46565b60405180910390fd5b600073ffffffffffffffffffffffffffffffffffffffff168273ffffffffffffffffffffffffffffffffffffffff161415611e63576040517f08c379a0000000000000000000000000000000000000000000000000000000008152600401611e5a90613fd8565b60405180910390fd5b611e6e8383836124e3565b611e79600082611be6565b6001600360008573ffffffffffffffffffffffffffffffffffffffff1673ffffffffffffffffffffffffffffffffffffffff1681526020019081526020016000206000828254611ec99190613ff8565b925050819055506001600360008473ffffffffffffffffffffffffffffffffffffffff1673ffffffffffffffffffffffffffffffffffffffff1681526020019081526020016000206000828254611f209190613b6d565b92505081905550816002600083815260200190815260200160002060006101000a81548173ffffffffffffffffffffffffffffffffffffffff021916908373ffffffffffffffffffffffffffffffffffffffff160217905550808273ffffffffffffffffffffffffffffffffffffffff168473ffffffffffffffffffffffffffffffffffffffff167fddf252ad1be2c89b69c2b068fc378daa952ba7f163c4a11628f55a4df523b3ef60405160405180910390a4505050565b6000600a60009054906101000a900473ffffffffffffffffffffffffffffffffffffffff16905081600a60006101000a81548173ffffffffffffffffffffffffffffffffffffffff021916908373ffffffffffffffffffffffffffffffffffffffff1602179055508173ffffffffffffffffffffffffffffffffffffffff168173ffffffffffffffffffffffffffffffffffffffff167f8be0079c531659141344cd1fd0a4f28419497f9722a3daafe3b4186f6b6457e060405160405180910390a35050565b6120b98282604051806020016040528060008152506125f7565b5050565b8173ffffffffffffffffffffffffffffffffffffffff168373ffffffffffffffffffffffffffffffffffffffff16141561212c576040517f08c379a000000000000000000000000000000000000000000000000000000000815260040161212390614078565b60405180910390fd5b80600560008573ffffffffffffffffffffffffffffffffffffffff1673ffffffffffffffffffffffffffffffffffffffff16815260200190815260200160002060008473ffffffffffffffffffffffffffffffffffffffff1673ffffffffffffffffffffffffffffffffffffffff16815260200190815260200160002060006101000a81548160ff0219169083151502179055508173ffffffffffffffffffffffffffffffffffffffff168373ffffffffffffffffffffffffffffffffffffffff167f17307eab39ab6107e8899845ad3d59bd9653f200f220920489ca2b5937696c318360405161221d9190612e1d565b60405180910390a3505050565b612235848484611d7d565b61224184848484612652565b612280576040517f08c379a00000000000000000000000000000000000000000000000000000000081526004016122779061410a565b60405180910390fd5b50505050565b6060600b8054612295906135be565b80601f01602080910402602001604051908101604052809291908181526020018280546122c1906135be565b801561230e5780601f106122e35761010080835404028352916020019161230e565b820191906000526020600020905b8154815290600101906020018083116122f157829003601f168201915b5050505050905090565b60606000821415612360576040518060400160405280600181526020017f30000000000000000000000000000000000000000000000000000000000000008152509050612474565b600082905060005b6000821461239257808061237b9061396e565b915050600a8261238b9190614159565b9150612368565b60008167ffffffffffffffff8111156123ae576123ad61320b565b5b6040519080825280601f01601f1916602001820160405280156123e05781602001600182028036833780820191505090505b5090505b6000851461246d576001826123f99190613ff8565b9150600a85612408919061418a565b60306124149190613b6d565b60f81b81838151811061242a57612429613910565b5b60200101907effffffffffffffffffffffffffffffffffffffffffffffffffffffffffffff1916908160001a905350600a856124669190614159565b94506123e4565b8093505050505b919050565b60007f01ffc9a7000000000000000000000000000000000000000000000000000000007bffffffffffffffffffffffffffffffffffffffffffffffffffffffff1916827bffffffffffffffffffffffffffffffffffffffffffffffffffffffff1916149050919050565b6124ee8383836127da565b600073ffffffffffffffffffffffffffffffffffffffff168373ffffffffffffffffffffffffffffffffffffffff1614156125315761252c816127df565b612570565b8173ffffffffffffffffffffffffffffffffffffffff168373ffffffffffffffffffffffffffffffffffffffff161461256f5761256e8382612828565b5b5b600073ffffffffffffffffffffffffffffffffffffffff168273ffffffffffffffffffffffffffffffffffffffff1614156125b3576125ae81612995565b6125f2565b8273ffffffffffffffffffffffffffffffffffffffff168273ffffffffffffffffffffffffffffffffffffffff16146125f1576125f08282612a66565b5b5b505050565b6126018383612ae5565b61260e6000848484612652565b61264d576040517f08c379a00000000000000000000000000000000000000000000000000000000081526004016126449061410a565b60405180910390fd5b505050565b60006126738473ffffffffffffffffffffffffffffffffffffffff16612cb3565b156127cd578373ffffffffffffffffffffffffffffffffffffffff1663150b7a0261269c611b72565b8786866040518563ffffffff1660e01b81526004016126be9493929190614210565b6020604051808303816000875af19250505080156126fa57506040513d601f19601f820116820180604052508101906126f79190614271565b60015b61277d573d806000811461272a576040519150601f19603f3d011682016040523d82523d6000602084013e61272f565b606091505b50600081511415612775576040517f08c379a000000000000000000000000000000000000000000000000000000000815260040161276c9061410a565b60405180910390fd5b805181602001fd5b63150b7a0260e01b7bffffffffffffffffffffffffffffffffffffffffffffffffffffffff1916817bffffffffffffffffffffffffffffffffffffffffffffffffffffffff1916149150506127d2565b600190505b949350505050565b505050565b6008805490506009600083815260200190815260200160002081905550600881908060018154018082558091505060019003906000526020600020016000909190919091505550565b6000600161283584611186565b61283f9190613ff8565b9050600060076000848152602001908152602001600020549050818114612924576000600660008673ffffffffffffffffffffffffffffffffffffffff1673ffffffffffffffffffffffffffffffffffffffff168152602001908152602001600020600084815260200190815260200160002054905080600660008773ffffffffffffffffffffffffffffffffffffffff1673ffffffffffffffffffffffffffffffffffffffff168152602001908152602001600020600084815260200190815260200160002081905550816007600083815260200190815260200160002081905550505b6007600084815260200190815260200160002060009055600660008573ffffffffffffffffffffffffffffffffffffffff1673ffffffffffffffffffffffffffffffffffffffff16815260200190815260200160002060008381526020019081526020016000206000905550505050565b600060016008805490506129a99190613ff8565b90506000600960008481526020019081526020016000205490506000600883815481106129d9576129d8613910565b5b9060005260206000200154905080600883815481106129fb576129fa613910565b5b906000526020600020018190555081600960008381526020019081526020016000208190555060096000858152602001908152602001600020600090556008805480612a4a57612a4961429e565b5b6001900381819060005260206000200160009055905550505050565b6000612a7183611186565b905081600660008573ffffffffffffffffffffffffffffffffffffffff1673ffffffffffffffffffffffffffffffffffffffff168152602001908152602001600020600083815260200190815260200160002081905550806007600084815260200190815260200160002081905550505050565b600073ffffffffffffffffffffffffffffffffffffffff168273ffffffffffffffffffffffffffffffffffffffff161415612b55576040517f08c379a0000000000000000000000000000000000000000000000000000000008152600401612b4c90614319565b60405180910390fd5b612b5e81611b7a565b15612b9e576040517f08c379a0000000000000000000000000000000000000000000000000000000008152600401612b9590614385565b60405180910390fd5b612baa600083836124e3565b6001600360008473ffffffffffffffffffffffffffffffffffffffff1673ffffffffffffffffffffffffffffffffffffffff1681526020019081526020016000206000828254612bfa9190613b6d565b92505081905550816002600083815260200190815260200160002060006101000a81548173ffffffffffffffffffffffffffffffffffffffff021916908373ffffffffffffffffffffffffffffffffffffffff160217905550808273ffffffffffffffffffffffffffffffffffffffff16600073ffffffffffffffffffffffffffffffffffffffff167fddf252ad1be2c89b69c2b068fc378daa952ba7f163c4a11628f55a4df523b3ef60405160405180910390a45050565b600080823b905060008111915050919050565b828054612cd2906135be565b90600052602060002090601f016020900481019282612cf45760008555612d3b565b82601f10612d0d57805160ff1916838001178555612d3b565b82800160010185558215612d3b579182015b82811115612d3a578251825591602001919060010190612d1f565b5b509050612d489190612d4c565b5090565b5b80821115612d65576000816000905550600101612d4d565b5090565b6000604051905090565b600080fd5b600080fd5b60007fffffffff0000000000000000000000000000000000000000000000000000000082169050919050565b612db281612d7d565b8114612dbd57600080fd5b50565b600081359050612dcf81612da9565b92915050565b600060208284031215612deb57612dea612d73565b5b6000612df984828501612dc0565b91505092915050565b60008115159050919050565b612e1781612e02565b82525050565b6000602082019050612e326000830184612e0e565b92915050565b612e4181612e02565b8114612e4c57600080fd5b50565b600081359050612e5e81612e38565b92915050565b600060208284031215612e7a57612e79612d73565b5b6000612e8884828501612e4f565b91505092915050565b600081519050919050565b600082825260208201905092915050565b60005b83811015612ecb578082015181840152602081019050612eb0565b83811115612eda576000848401525b50505050565b6000601f19601f8301169050919050565b6000612efc82612e91565b612f068185612e9c565b9350612f16818560208601612ead565b612f1f81612ee0565b840191505092915050565b60006020820190508181036000830152612f448184612ef1565b905092915050565b6000819050919050565b612f5f81612f4c565b8114612f6a57600080fd5b50565b600081359050612f7c81612f56565b92915050565b600060208284031215612f9857612f97612d73565b5b6000612fa684828501612f6d565b91505092915050565b600073ffffffffffffffffffffffffffffffffffffffff82169050919050565b6000612fda82612faf565b9050919050565b612fea81612fcf565b82525050565b60006020820190506130056000830184612fe1565b92915050565b61301481612fcf565b811461301f57600080fd5b50565b6000813590506130318161300b565b92915050565b6000806040838503121561304e5761304d612d73565b5b600061305c85828601613022565b925050602061306d85828601612f6d565b9150509250929050565b61308081612f4c565b82525050565b600060208201905061309b6000830184613077565b92915050565b6000806000606084860312156130ba576130b9612d73565b5b60006130c886828701613022565b93505060206130d986828701613022565b92505060406130ea86828701612f6d565b9150509250925092565b60006020828403121561310a57613109612d73565b5b600061311884828501613022565b91505092915050565b600081519050919050565b600082825260208201905092915050565b6000819050602082019050919050565b61315681612f4c565b82525050565b6000613168838361314d565b60208301905092915050565b6000602082019050919050565b600061318c82613121565b613196818561312c565b93506131a18361313d565b8060005b838110156131d25781516131b9888261315c565b97506131c483613174565b9250506001810190506131a5565b5085935050505092915050565b600060208201905081810360008301526131f98184613181565b905092915050565b600080fd5b600080fd5b7f4e487b7100000000000000000000000000000000000000000000000000000000600052604160045260246000fd5b61324382612ee0565b810181811067ffffffffffffffff821117156132625761326161320b565b5b80604052505050565b6000613275612d69565b9050613281828261323a565b919050565b600067ffffffffffffffff8211156132a1576132a061320b565b5b6132aa82612ee0565b9050602081019050919050565b82818337600083830152505050565b60006132d96132d484613286565b61326b565b9050828152602081018484840111156132f5576132f4613206565b5b6133008482856132b7565b509392505050565b600082601f83011261331d5761331c613201565b5b813561332d8482602086016132c6565b91505092915050565b60006020828403121561334c5761334b612d73565b5b600082013567ffffffffffffffff81111561336a57613369612d78565b5b61337684828501613308565b91505092915050565b6000806040838503121561339657613395612d73565b5b60006133a485828601613022565b92505060206133b585828601612e4f565b9150509250929050565b600067ffffffffffffffff8211156133da576133d961320b565b5b6133e382612ee0565b9050602081019050919050565b60006134036133fe846133bf565b61326b565b90508281526020810184848401111561341f5761341e613206565b5b61342a8482856132b7565b509392505050565b600082601f83011261344757613446613201565b5b81356134578482602086016133f0565b91505092915050565b6000806000806080858703121561347a57613479612d73565b5b600061348887828801613022565b945050602061349987828801613022565b93505060406134aa87828801612f6d565b925050606085013567ffffffffffffffff8111156134cb576134ca612d78565b5b6134d787828801613432565b91505092959194509250565b600080604083850312156134fa576134f9612d73565b5b600061350885828601613022565b925050602061351985828601613022565b9150509250929050565b7f4f776e61626c653a2063616c6c6572206973206e6f7420746865206f776e6572600082015250565b6000613559602083612e9c565b915061356482613523565b602082019050919050565b600060208201905081810360008301526135888161354c565b9050919050565b7f4e487b7100000000000000000000000000000000000000000000000000000000600052602260045260246000fd5b600060028204905060018216806135d657607f821691505b602082108114156135ea576135e961358f565b5b50919050565b7f4552433732313a20617070726f76656420717565727920666f72206e6f6e657860008201527f697374656e7420746f6b656e0000000000000000000000000000000000000000602082015250565b600061364c602c83612e9c565b9150613657826135f0565b604082019050919050565b6000602082019050818103600083015261367b8161363f565b9050919050565b7f4552433732313a20617070726f76616c20746f2063757272656e74206f776e6560008201527f7200000000000000000000000000000000000000000000000000000000000000602082015250565b60006136de602183612e9c565b91506136e982613682565b604082019050919050565b6000602082019050818103600083015261370d816136d1565b9050919050565b7f4552433732313a20617070726f76652063616c6c6572206973206e6f74206f7760008201527f6e6572206e6f7220617070726f76656420666f7220616c6c0000000000000000602082015250565b6000613770603883612e9c565b915061377b82613714565b604082019050919050565b6000602082019050818103600083015261379f81613763565b9050919050565b7f4552433732313a207472616e736665722063616c6c6572206973206e6f74206f60008201527f776e6572206e6f7220617070726f766564000000000000000000000000000000602082015250565b6000613802603183612e9c565b915061380d826137a6565b604082019050919050565b60006020820190508181036000830152613831816137f5565b9050919050565b7f455243373231456e756d657261626c653a206f776e657220696e646578206f7560008201527f74206f6620626f756e6473000000000000000000000000000000000000000000602082015250565b6000613894602b83612e9c565b915061389f82613838565b604082019050919050565b600060208201905081810360008301526138c381613887565b9050919050565b600081905092915050565b50565b60006138e56000836138ca565b91506138f0826138d5565b600082019050919050565b6000613906826138d8565b9150819050919050565b7f4e487b7100000000000000000000000000000000000000000000000000000000600052603260045260246000fd5b7f4e487b7100000000000000000000000000000000000000000000000000000000600052601160045260246000fd5b600061397982612f4c565b91507fffffffffffffffffffffffffffffffffffffffffffffffffffffffffffffffff8214156139ac576139ab61393f565b5b600182019050919050565b7f455243373231456e756d657261626c653a20676c6f62616c20696e646578206f60008201527f7574206f6620626f756e64730000000000000000000000000000000000000000602082015250565b6000613a13602c83612e9c565b9150613a1e826139b7565b604082019050919050565b60006020820190508181036000830152613a4281613a06565b9050919050565b7f4552433732313a206f776e657220717565727920666f72206e6f6e657869737460008201527f656e7420746f6b656e0000000000000000000000000000000000000000000000602082015250565b6000613aa5602983612e9c565b9150613ab082613a49565b604082019050919050565b60006020820190508181036000830152613ad481613a98565b9050919050565b7f4552433732313a2062616c616e636520717565727920666f7220746865207a6560008201527f726f206164647265737300000000000000000000000000000000000000000000602082015250565b6000613b37602a83612e9c565b9150613b4282613adb565b604082019050919050565b60006020820190508181036000830152613b6681613b2a565b9050919050565b6000613b7882612f4c565b9150613b8383612f4c565b9250827fffffffffffffffffffffffffffffffffffffffffffffffffffffffffffffffff03821115613bb857613bb761393f565b5b828201905092915050565b6000613bce82612f4c565b9150613bd983612f4c565b9250817fffffffffffffffffffffffffffffffffffffffffffffffffffffffffffffffff0483118215151615613c1257613c1161393f565b5b828202905092915050565b7f4552433732314d657461646174613a2055524920717565727920666f72206e6f60008201527f6e6578697374656e7420746f6b656e0000000000000000000000000000000000602082015250565b6000613c79602f83612e9c565b9150613c8482613c1d565b604082019050919050565b60006020820190508181036000830152613ca881613c6c565b9050919050565b600081905092915050565b6000613cc582612e91565b613ccf8185613caf565b9350613cdf818560208601612ead565b80840191505092915050565b60008190508160005260206000209050919050565b60008154613d0d816135be565b613d178186613caf565b94506001821660008114613d325760018114613d4357613d76565b60ff19831686528186019350613d76565b613d4c85613ceb565b60005b83811015613d6e57815481890152600182019150602081019050613d4f565b838801955050505b50505092915050565b6000613d8b8286613cba565b9150613d978285613cba565b9150613da38284613d00565b9150819050949350505050565b7f4f776e61626c653a206e6577206f776e657220697320746865207a65726f206160008201527f6464726573730000000000000000000000000000000000000000000000000000602082015250565b6000613e0c602683612e9c565b9150613e1782613db0565b604082019050919050565b60006020820190508181036000830152613e3b81613dff565b9050919050565b7f4552433732313a206f70657261746f7220717565727920666f72206e6f6e657860008201527f697374656e7420746f6b656e0000000000000000000000000000000000000000602082015250565b6000613e9e602c83612e9c565b9150613ea982613e42565b604082019050919050565b60006020820190508181036000830152613ecd81613e91565b9050919050565b7f4552433732313a207472616e73666572206f6620746f6b656e2074686174206960008201527f73206e6f74206f776e0000000000000000000000000000000000000000000000602082015250565b6000613f30602983612e9c565b9150613f3b82613ed4565b604082019050919050565b60006020820190508181036000830152613f5f81613f23565b9050919050565b7f4552433732313a207472616e7366657220746f20746865207a65726f2061646460008201527f7265737300000000000000000000000000000000000000000000000000000000602082015250565b6000613fc2602483612e9c565b9150613fcd82613f66565b604082019050919050565b60006020820190508181036000830152613ff181613fb5565b9050919050565b600061400382612f4c565b915061400e83612f4c565b9250828210156140215761402061393f565b5b828203905092915050565b7f4552433732313a20617070726f766520746f2063616c6c657200000000000000600082015250565b6000614062601983612e9c565b915061406d8261402c565b602082019050919050565b6000602082019050818103600083015261409181614055565b9050919050565b7f4552433732313a207472616e7366657220746f206e6f6e20455243373231526560008201527f63656976657220696d706c656d656e7465720000000000000000000000000000602082015250565b60006140f4603283612e9c565b91506140ff82614098565b604082019050919050565b60006020820190508181036000830152614123816140e7565b9050919050565b7f4e487b7100000000000000000000000000000000000000000000000000000000600052601260045260246000fd5b600061416482612f4c565b915061416f83612f4c565b92508261417f5761417e61412a565b5b828204905092915050565b600061419582612f4c565b91506141a083612f4c565b9250826141b0576141af61412a565b5b828206905092915050565b600081519050919050565b600082825260208201905092915050565b60006141e2826141bb565b6141ec81856141c6565b93506141fc818560208601612ead565b61420581612ee0565b840191505092915050565b60006080820190506142256000830187612fe1565b6142326020830186612fe1565b61423f6040830185613077565b818103606083015261425181846141d7565b905095945050505050565b60008151905061426b81612da9565b92915050565b60006020828403121561428757614286612d73565b5b60006142958482850161425c565b91505092915050565b7f4e487b7100000000000000000000000000000000000000000000000000000000600052603160045260246000fd5b7f4552433732313a206d696e7420746f20746865207a65726f2061646472657373600082015250565b6000614303602083612e9c565b915061430e826142cd565b602082019050919050565b60006020820190508181036000830152614332816142f6565b9050919050565b7f4552433732313a20746f6b656e20616c7265616479206d696e74656400000000600082015250565b600061436f601c83612e9c565b915061437a82614339565b602082019050919050565b6000602082019050818103600083015261439e81614362565b905091905056fea26469706673582212208e761d830db2291472a8f1be271da30a55d20843f5b5fa25412313b7d204a72064736f6c634300080b0033",
  "immutableReferences": {},
  "source": "/**\n *Submitted for verification at polygonscan.com on 2021-12-01\n*/\npragma solidity >=0.7.0 <0.9.0;\n// SPDX-License-Identifier: MIT\n\nimport \"@openzeppelin/contracts/access/Ownable.sol\";\nimport \"@openzeppelin/contracts/utils/introspection/IERC165.sol\";\nimport \"@openzeppelin/contracts/token/ERC721/IERC721.sol\";\nimport \"@openzeppelin/contracts/token/ERC721/extensions/IERC721Enumerable.sol\";\nimport \"@openzeppelin/contracts/utils/introspection/ERC165.sol\";\nimport \"@openzeppelin/contracts/utils/Strings.sol\";\nimport \"@openzeppelin/contracts/utils/Address.sol\";\nimport \"@openzeppelin/contracts/token/ERC721/extensions/IERC721Metadata.sol\";\nimport \"@openzeppelin/contracts/token/ERC721/IERC721Receiver.sol\";\nimport \"@openzeppelin/contracts/utils/Context.sol\";\nimport \"@openzeppelin/contracts/token/ERC721/ERC721.sol\";\nimport \"@openzeppelin/contracts/token/ERC721/extensions/ERC721Enumerable.sol\";\n\ncontract HarambeClubNFT is ERC721Enumerable, Ownable {\n  using Strings for uint256;\n\n  string baseURI;\n  string public baseExtension = \".json\";\n  uint256 public cost = 50 ether;\n  uint256 public maxSupply = 5000;\n  uint256 public maxMintAmount = 20;\n  bool public paused = true;\n  bool public revealed = false;\n  string public notRevealedUri;\n\n  constructor(\n    string memory _name,\n    string memory _symbol,\n    string memory _initBaseURI,\n    string memory _initNotRevealedUri\n  ) ERC721(_name, _symbol) {\n    setBaseURI(_initBaseURI);\n    setNotRevealedURI(_initNotRevealedUri);\n  }\n\n  // internal\n  function _baseURI() internal view virtual override returns (string memory) {\n    return baseURI;\n  }\n\n  // public\n  function mint(uint256 _mintAmount) public payable {\n    uint256 supply = totalSupply();\n    // require(!paused);\n    require(_mintAmount > 0);\n    require(_mintAmount <= maxMintAmount);\n    require(supply + _mintAmount <= maxSupply);\n\n    if (msg.sender != owner()) {\n      require(msg.value >= cost * _mintAmount);\n    }\n\n    for (uint256 i = 1; i <= _mintAmount; i++) {\n      _safeMint(msg.sender, supply + i);\n    }\n  }\n\n  function walletOfOwner(address _owner)\n    public\n    view\n    returns (uint256[] memory)\n  {\n    uint256 ownerTokenCount = balanceOf(_owner);\n    uint256[] memory tokenIds = new uint256[](ownerTokenCount);\n    for (uint256 i; i < ownerTokenCount; i++) {\n      tokenIds[i] = tokenOfOwnerByIndex(_owner, i);\n    }\n    return tokenIds;\n  }\n\n  function tokenURI(uint256 tokenId)\n    public\n    view\n    virtual\n    override\n    returns (string memory)\n  {\n    require(\n      _exists(tokenId),\n      \"ERC721Metadata: URI query for nonexistent token\"\n    );\n\n    if(revealed == false) {\n        return notRevealedUri;\n    }\n\n    string memory currentBaseURI = _baseURI();\n    return bytes(currentBaseURI).length > 0\n        ? string(abi.encodePacked(currentBaseURI, tokenId.toString(), baseExtension))\n        : \"\";\n  }\n\n  // only owner\n  function reveal() public onlyOwner {\n      revealed = true;\n  }\n\n  function setCost(uint256 _newCost) public onlyOwner {\n    cost = _newCost;\n  }\n\n  function setmaxMintAmount(uint256 _newmaxMintAmount) public onlyOwner {\n    maxMintAmount = _newmaxMintAmount;\n  }\n\n  function setNotRevealedURI(string memory _notRevealedURI) public onlyOwner {\n    notRevealedUri = _notRevealedURI;\n  }\n\n  function setBaseURI(string memory _newBaseURI) public onlyOwner {\n    baseURI = _newBaseURI;\n  }\n\n  function setBaseExtension(string memory _newBaseExtension) public onlyOwner {\n    baseExtension = _newBaseExtension;\n  }\n\n  function pause(bool _state) public onlyOwner {\n    paused = _state;\n  }\n\n  function withdraw() public payable onlyOwner {\n\n    // =============================================================================\n\n    // This will payout the owner 95% of the contract balance.\n    // Do not remove this otherwise you will not be able to withdraw the funds.\n    // =============================================================================\n    (bool os, ) = payable(owner()).call{value: address(this).balance}(\"\");\n    require(os);\n    // =============================================================================\n  }\n}\n",
  "sourcePath": "/home/damion/Documents/MetaBridge/HarambeClub/harambeClub/src/contracts/HarambeClubNFT.sol",
  "compiler": {
    "name": "solc",
    "version": "0.8.11+commit.d7f03943.Emscripten.clang"
  },
  "schemaVersion": "3.4.4",
  "updatedAt": "2022-01-24T01:59:53.365Z",
  "networkType": "ethereum",
  "devdoc": {
    "kind": "dev",
    "methods": {
      "approve(address,uint256)": {
        "details": "See {IERC721-approve}."
      },
      "balanceOf(address)": {
        "details": "See {IERC721-balanceOf}."
      },
      "getApproved(uint256)": {
        "details": "See {IERC721-getApproved}."
      },
      "isApprovedForAll(address,address)": {
        "details": "See {IERC721-isApprovedForAll}."
      },
      "name()": {
        "details": "See {IERC721Metadata-name}."
      },
      "owner()": {
        "details": "Returns the address of the current owner."
      },
      "ownerOf(uint256)": {
        "details": "See {IERC721-ownerOf}."
      },
      "renounceOwnership()": {
        "details": "Leaves the contract without owner. It will not be possible to call `onlyOwner` functions anymore. Can only be called by the current owner. NOTE: Renouncing ownership will leave the contract without an owner, thereby removing any functionality that is only available to the owner."
      },
      "safeTransferFrom(address,address,uint256)": {
        "details": "See {IERC721-safeTransferFrom}."
      },
      "safeTransferFrom(address,address,uint256,bytes)": {
        "details": "See {IERC721-safeTransferFrom}."
      },
      "setApprovalForAll(address,bool)": {
        "details": "See {IERC721-setApprovalForAll}."
      },
      "supportsInterface(bytes4)": {
        "details": "See {IERC165-supportsInterface}."
      },
      "symbol()": {
        "details": "See {IERC721Metadata-symbol}."
      },
      "tokenByIndex(uint256)": {
        "details": "See {IERC721Enumerable-tokenByIndex}."
      },
      "tokenOfOwnerByIndex(address,uint256)": {
        "details": "See {IERC721Enumerable-tokenOfOwnerByIndex}."
      },
      "tokenURI(uint256)": {
        "details": "See {IERC721Metadata-tokenURI}."
      },
      "totalSupply()": {
        "details": "See {IERC721Enumerable-totalSupply}."
      },
      "transferFrom(address,address,uint256)": {
        "details": "See {IERC721-transferFrom}."
      },
      "transferOwnership(address)": {
        "details": "Transfers ownership of the contract to a new account (`newOwner`). Can only be called by the current owner."
      }
    },
    "version": 1
  },
  "userdoc": {
    "kind": "user",
    "methods": {},
    "version": 1
  }
}